:100000000C942A000C943C000C943C000C943C0092
:100010000C943C000C943C000C949F010C94C8017F
:100020000C94F1010C941A020C943C000C943C00CA
:100030000C943C000C943C000C943C000C943C0050
:100040000C943C000C943C000C943C000C943C0040
:100050000C943C0011241FBECFE5D8E0DEBFCDBF1D
:1000600010E0A0E6B0E001C01D92AE37B107E1F7A5
:100070000E94F7030C9417040C9400008330B0F432
:1000800090E0FC01EE0FFF1FE80FF91FEE0FFF1FBE
:10009000DF01A05ABF4F11967C936E93EE59FF4F2C
:1000A0005183408315963C932E9314970895CF93D4
:1000B000DF93C0E6D0E08A819B81009729F4EC8130
:1000C000FD8109958881998101979B838A83269672
:1000D00080E0C237D80779F7DF91CF9108957894FF
:1000E00087E590E00E94900187EE93E00E948201F4
:1000F0000E94670184E090E062E070E040E050E040
:1001000020E030E00E94850008958730910509F4D1
:1001100060C088309105A8F48330910509F43DC092
:100120008430910530F48130910559F1029778F5CA
:1001300023C08530910509F440C0069708F043C0FC
:1001400037C08B30910509F461C08C30910540F4C3
:100150008930910509F44EC00A9708F051C045C096
:100160008D30910509F463C08D30910508F45AC0B3
:100170000E9709F06EC061C08FB58C7F8FBD8FB5B3
:1001800011C08FB58C7F8FBD8FB581600BC08FB5CF
:100190008C7F8FBD8FB5826005C08FB58C7F8FBD82
:1001A0008FB583608FBD8EB5877E8EBD8EB550C0F6
:1001B0008FB58C7F8FBD8FB511C08FB58C7F8FBDF4
:1001C0008FB581600BC08FB58C7F8FBD8FB582607E
:1001D00005C08FB58C7F8FBD8FB583608FBD8EB509
:1001E000877E8EBD8EB5886033C08FB58C7F8FBD06
:1001F0008FB511C08FB58C7F8FBD8FB581600BC05F
:100200008FB58C7F8FBD8FB5826005C08FB58C7F19
:100210008FBD8FB583608FBD8EB5877E8EBD8EB549
:10022000806116C08FB58C7F8FBD8FB50BC08FB529
:100230008C7F8FBD8FB5826005C08FB58C7F8FBDE1
:100240008FB583608FBD8EB5877E8EBD8EB588617C
:100250008EBD8FB58F708FBD8FB54295440F440F03
:10026000407C482B2295207F422B4FBD8EB5887F46
:100270008EBD8EB5862B8EBD0895009721F48EB568
:1002800080648EBD0895019719F48EB58F7B8EBD65
:1002900008951DBC1CBC83E492E090937900809388
:1002A000780080E090E00E943D0189B7806289BFBC
:1002B00010927A00FFCF26B537B5C901089589B7E6
:1002C000806289BF089589B78F7D89BF089589B7F6
:1002D000806189BF089589B78F7E89BF089589B7E6
:1002E000886089BF089589B7877F89BF089589B7D6
:1002F000846089BF089589B78B7F89BF089597BDB2
:1003000086BD08959BBD8ABD089599BD88BD089599
:100310009DBD8CBD089590937900809378000895D9
:100320009093770080937600089590937500809362
:1003300074000895909373008093720008951F9243
:100340000F920FB60F9211242F933F934F935F9309
:100350006F937F938F939F93AF93BF93EF93FF938D
:10036000E0917800F0917900309709F00995FF91BC
:10037000EF91BF91AF919F918F917F916F915F911D
:100380004F913F912F910F900FBE0F901F90189596
:100390001F920F920FB60F9211242F933F934F93FA
:1003A0005F936F937F938F939F93AF93BF93EF93DD
:1003B000FF93E0917600F0917700309709F009956E
:1003C000FF91EF91BF91AF919F918F917F916F912D
:1003D0005F914F913F912F910F900FBE0F901F9003
:1003E00018951F920F920FB60F9211242F933F93DF
:1003F0004F935F936F937F938F939F93AF93BF932D
:10040000EF93FF93E0917400F0917500309709F03D
:100410000995FF91EF91BF91AF919F918F917F913E
:100420006F915F914F913F912F910F900FBE0F9061
:100430001F9018951F920F920FB60F9211242F93B1
:100440003F934F935F936F937F938F939F93AF935C
:10045000BF93EF93FF93E0917200F0917300309798
:1004600009F00995FF91EF91BF91AF919F918F9105
:100470007F916F915F914F913F912F910F900FBEA0
:100480000F901F90189580917A00882351F486B5BB
:1004900097B580937B0081E090E00E943D0181E070
:1004A0000BC0813061F486B597B580937C0080E005
:1004B00090E00E943D0182E080937A0008958230AE
:1004C00051F486B597B580937D0089B78F7D89BF3C
:1004D00083E080937A0008951BBA18BA15BA12BA4D
:1004E0008FEF8ABB87BB84BB8EEF81BB08958130C1
:1004F00051F0813028F0823049F08330F1F409C0A6
:1005000089B349B308C086B346B305C083B343B3C8
:1005100002C080B340B370E021E030E002C0220F9F
:10052000331F6A95E2F72095309590E02823392310
:1005300050E02417350709F071E0872F08958130C6
:1005400029F1813038F0823009F43CC0833009F061
:100550006EC053C0442371F0413009F068C02BB322
:1005600081E090E002C0880F991F6A95E2F7282B7E
:100570002BBB08952BB381E090E002C0880F991F38
:100580006A95E2F7809582238BBB0895442371F02E
:10059000413009F04CC028B381E090E002C0880FE0
:1005A000991F6A95E2F7282B28BB089528B381E0AC
:1005B00090E002C0880F991F6A95E2F78095822328
:1005C00088BB0895442369F0413089F525B381E063
:1005D00090E002C0880F991F6A95E2F7282B25BB8F
:1005E000089525B381E090E002C0880F991F6A95B5
:1005F000E2F78095822385BB0895442369F041305A
:10060000B1F422B381E090E002C0880F991F6A958F
:10061000E2F7282B22BB089522B381E090E002C0CC
:10062000880F991F6A95E2F78095822382BB08950F
:10063000813029F1813038F0823009F43CC08330B8
:1006400009F06EC053C0442371F0413009F068C016
:100650002AB381E090E002C0880F991F6A95E2F703
:10066000282B2ABB08952AB381E090E002C0880FAE
:10067000991F6A95E2F7809582238ABB08954423E7
:1006800071F0413009F04CC027B381E090E002C026
:10069000880F991F6A95E2F7282B27BB089527B387
:1006A00081E090E002C0880F991F6A95E2F780957B
:1006B000822387BB0895442369F0413089F524B330
:1006C00081E090E002C0880F991F6A95E2F7282B1D
:1006D00024BB089524B381E090E002C0880F991FE5
:1006E0006A95E2F78095822384BB0895442369F0DC
:1006F0004130B1F421B381E090E002C0880F991F2E
:100700006A95E2F7282B21BB089521B381E090E0A0
:1007100002C0880F991F6A95E2F78095822381BBFA
:100720000895813091F0813028F08230C9F0833013
:1007300061F521C02BB381E090E002C0880F991FC2
:100740006A95E2F728272BBB089528B381E090E053
:1007500002C0880F991F6A95E2F7282728BB0895E1
:1007600025B381E090E002C0880F991F6A95E2F7F7
:10077000282725BB089522B381E090E002C0880FAE
:10078000991F6A95E2F7282722BB0895813049F026
:10079000813028F0823039F0833041F406C06BBBE1
:1007A000089568BB089565BB089562BB08958130C4
:1007B00049F0813028F0823039F0833041F406C0AE
:1007C0006ABB089567BB089564BB089561BB089533
:1007D00080E062E00E949103089580E061E00E9461
:1007E0009103089580E060E00E94910308950E94C3
:1007F0006C0280E068EE73E040E050E022EF33E00E
:100800000E943E0081E060ED77E040E050E02DEE98
:1008100033E00E943E0082E068EB7BE040E050E085
:1008200028EE33E00E943E000E946F00FFCFF89454
:02083000FFCFF8
:00000001FF
