:100000000C942A000C943C000C943C000C943C0092
:100010000C943C000C943C000C9445020C946E0231
:100020000C9497020C94C0020C943C000C943C007D
:100030000C943C000C943C000C943C000C943C0050
:100040000C943C000C943C000C943C000C943C0040
:100050000C943C0011241FBECFE5D8E0DEBFCDBF1D
:1000600010E0A0E6B0E001C01D92AE37B107E1F7A5
:100070000E9404050C9424050C940000CF93DF9398
:10008000E9018330E8F4282F30E0E0E6F0E0C90130
:10009000880F991F820F931F9C01220F331FDF01CE
:1000A000A20FB31F11967C936E930196880F991F30
:1000B000E80FF91F518340831596DC93CE93149774
:1000C000DF91CF9108950F931F93CF93DF93C0E6F5
:1000D000D0E002E710E08A819B81009749F4EC812F
:1000E000FD8109958881998101979B838A8303C04B
:1000F00001979B838A832696C017D10761F7DF910A
:10010000CF911F910F910895789483E690E00E941B
:10011000360287EE93E00E941A020E94F30184E007
:1001200062E040E020E00E9496000895873009F4E4
:100130009AC0883088F4833009F453C0843028F49E
:10014000813079F18230E8F51DC0853009F469C04D
:10015000863008F077C055C08B3009F4C7C08C30AA
:1001600038F4893009F4A0C08A3008F0AEC08CC0E1
:100170008D3009F4DCC08D3008F4C9C08E3009F030
:10018000F7C0E6C0EFE4F0E080818C7F808380815F
:100190008083EEE4F0E08081877E808380818083AD
:1001A000E7C0EFE4F0E080818C7F80838081816014
:1001B0008083EEE4F0E08081877E8083808180838D
:1001C000D7C0EFE4F0E080818C7F80838081826003
:1001D0008083EEE4F0E08081877E8083808180836D
:1001E000C7C0EFE4F0E080818C7F808380818360F2
:1001F0008083EEE4F0E08081877E8083808180834D
:10020000B7C0EFE4F0E080818C7F808380818083C1
:10021000EEE4F0E08081877E808380818860808347
:10022000A7C0EFE4F0E080818C7F808380818160D3
:100230008083EEE4F0E08081877E80838081886027
:10024000808396C0EFE4F0E080818C7F80838081A2
:1002500082608083EEE4F0E08081877E808380810D
:100260008860808385C0EFE4F0E080818C7F8083AC
:10027000808183608083EEE4F0E08081877E8083EC
:1002800080818860808374C0EFE4F0E080818C7F9F
:10029000808380818083EEE4F0E08081877E8083AC
:1002A00080818061808364C0EFE4F0E080818C7F96
:1002B0008083808181608083EEE4F0E08081877EAE
:1002C000808380818061808353C0EFE4F0E080818F
:1002D0008C7F8083808182608083EEE4F0E0808187
:1002E000877E808380818061808342C0EFE4F0E07C
:1002F00080818C7F8083808183608083EEE4F0E066
:100300008081877E808380818061808331C0EFE43B
:10031000F0E080818C7F808380818083EEE4F0E058
:100320008081877E808380818861808321C0EFE423
:10033000F0E080818C7F8083808182608083EEE426
:10034000F0E08081877E808380818861808310C017
:10035000EFE4F0E080818C7F808380818360808304
:10036000EEE4F0E08081877E8083808188618083F5
:10037000EFE4F0E080818F7080838081942F9295EC
:10038000990F990F907C982B822F8295807F892BD3
:100390008083EEE4F0E08081887F80838081862BFB
:1003A00080830895882331F4EEE4F0E08081806456
:1003B00080830895813029F4EEE4F0E080818F7B22
:1003C0008083089526B537B5822F932F0895E9E5E8
:1003D000F0E08081806280830895E9E5F0E080812B
:1003E0008F7D80830895E9E5F0E0808180618083DE
:1003F0000895E9E5F0E080818F7E80830895E9E546
:10040000F0E08081886080830895E9E5F0E08081F4
:10041000877F80830895E9E5F0E0808184608083B0
:100420000895E9E5F0E080818B7F8083089597BD92
:1004300086BD08959BBD8ABD089599BD88BD089568
:100440009DBD8CBD089590937900809378000895A8
:100450001DBC1CBC89EE92E00E94230280E00E9439
:10046000D2010E94E70110927A00FFCF90937700AB
:10047000809376000895909375008093740008959A
:10048000909373008093720008951F920F920FB69D
:100490000F9211242F933F934F935F936F937F930A
:1004A0008F939F93AF93BF93EF93FF93E091780067
:1004B000F0917900309709F00995FF91EF91BF9184
:1004C000AF919F918F917F916F915F914F913F91EC
:1004D0002F910F900FBE0F901F9018951F920F92A3
:1004E0000FB60F9211242F933F934F935F936F9307
:1004F0007F938F939F93AF93BF93EF93FF93E0917D
:100500007600F0917700309709F00995FF91EF910F
:10051000BF91AF919F918F917F916F915F914F911B
:100520003F912F910F900FBE0F901F9018951F9223
:100530000F920FB60F9211242F933F934F935F9317
:100540006F937F938F939F93AF93BF93EF93FF939B
:10055000E0917400F0917500309709F00995FF91D2
:10056000EF91BF91AF919F918F917F916F915F912B
:100570004F913F912F910F900FBE0F901F901895A4
:100580001F920F920FB60F9211242F933F934F9308
:100590005F936F937F938F939F93AF93BF93EF93EB
:1005A000FF93E0917200F0917300309709F0099584
:1005B000FF91EF91BF91AF919F918F917F916F913B
:1005C0005F914F913F912F910F900FBE0F901F9011
:1005D000189580917A00882359F486B597B5809351
:1005E0007B0081E00E94D20181E080937A0008952F
:1005F000813059F486B597B580937C0080E00E94E5
:10060000D20182E080937A000895823049F486B561
:1006100097B580937D000E94ED0183E080937A007E
:1006200008951BBA18BA15BA12BA8FEF8ABB87BBE6
:1006300084BB8EEF81BB0895813001F1813030F0B1
:10064000823099F1833009F05DC046C0E9E3F0E003
:100650002081408170E081E090E002C0880F991F06
:100660006A95E2F78095909530E08223932350E0DD
:100670008417950709F446C071E044C0E6E3F0E052
:100680002081408170E081E090E002C0880F991FD6
:100690006A95E2F78095909530E08223932350E0AD
:1006A0008417950779F171E02DC0E3E3F0E0208134
:1006B000408170E081E090E002C0880F991F6A9548
:1006C000E2F78095909530E08223932350E08417E1
:1006D0009507C1F071E016C0E0E3F0E020814081B1
:1006E00070E081E090E002C0880F991F6A95E2F700
:1006F0008095909530E08223932350E084179507EE
:1007000009F071E0872F0895813049F1813038F088
:10071000823009F444C0833009F07EC05FC04423B6
:1007200081F0413009F078C0EBE3F0E0208181E016
:1007300090E002C0880F991F6A95E2F7282B20836A
:100740000895EBE3F0E0208181E090E002C0880FA3
:10075000991F6A95E2F78095822380830895442348
:1007600081F0413009F058C0E8E3F0E0208181E0F9
:1007700090E002C0880F991F6A95E2F7282B20832A
:100780000895E8E3F0E0208181E090E002C0880F66
:10079000991F6A95E2F78095822380830895442308
:1007A00079F04130C9F5E5E3F0E0208181E090E0A7
:1007B00002C0880F991F6A95E2F7282B20830895BD
:1007C000E5E3F0E0208181E090E002C0880F991F0E
:1007D0006A95E2F78095822380830895442379F017
:1007E0004130D1F4E2E3F0E0208181E090E002C00A
:1007F000880F991F6A95E2F7282B20830895E2E37A
:10080000F0E0208181E090E002C0880F991F6A9596
:10081000E2F78095822380830895813049F1813009
:1008200038F0823009F444C0833009F07EC05FC0E4
:10083000442381F0413009F078C0EAE3F0E0208100
:1008400081E090E002C0880F991F6A95E2F7282B9B
:1008500020830895EAE3F0E0208181E090E002C087
:10086000880F991F6A95E2F7809582238083089507
:10087000442381F0413009F058C0E7E3F0E02081E3
:1008800081E090E002C0880F991F6A95E2F7282B5B
:1008900020830895E7E3F0E0208181E090E002C04A
:1008A000880F991F6A95E2F78095822380830895C7
:1008B000442379F04130C9F5E4E3F0E0208181E0A0
:1008C00090E002C0880F991F6A95E2F7282B2083D9
:1008D0000895E4E3F0E0208181E090E002C0880F19
:1008E000991F6A95E2F780958223808308954423B7
:1008F00079F04130D1F4E1E3F0E0208181E090E053
:1009000002C0880F991F6A95E2F7282B208308956B
:10091000E1E3F0E0208181E090E002C0880F991FC0
:100920006A95E2F780958223808308958130A1F053
:10093000813028F08230E9F08330A1F527C0EBE365
:10094000F0E0208181E090E002C0880F991F6A9555
:10095000E2F7282720830895E8E3F0E0208181E092
:1009600090E002C0880F991F6A95E2F7282720833C
:100970000895E5E3F0E0208181E090E002C0880F77
:10098000991F6A95E2F7282720830895E2E3F0E0B3
:10099000208181E090E002C0880F991F6A95E2F7FC
:1009A000282720830895813049F0813028F0823053
:1009B00039F0833041F406C06BBB089568BB0895DD
:1009C00065BB089562BB0895813049F0813028F0FD
:1009D000823039F0833041F406C06ABB089567BBAA
:1009E000089564BB089561BB089580E062E00E94B1
:1009F0009604089580E061E00E949604089580E0E6
:100A000060E00E94960408950E94110380E068EE61
:100A100073E040E050E02FEF34E00E943E0081E0C0
:100A200060ED77E040E050E02AEF34E00E943E00C5
:100A300082E068EB7BE040E050E025EF34E00E948C
:0C0A40003E000E948400FFCFF894FFCF1E
:00000001FF
